:020000040800F2
:1000000060210020C5010008A7300008A1290008D0
:10001000A530000855050008E93A00080000000076
:100020000000000000000000000000002533000870
:100030006706000800000000E530000827330008CC
:10004000DF010008DF010008DF010008DF01000810
:10005000DF010008DF010008DF010008DF01000800
:10006000DF010008DF010008DF010008DF010008F0
:10007000DF010008DF010008DF010008DF010008E0
:10008000DF010008DF010008DF010008DF010008D0
:10009000DF010008DF010008DF010008DF010008C0
:1000A000DF010008DF010008DF010008DF010008B0
:1000B000D5330008DF010008DF010008DF01000878
:1000C000DF010008DF010008DF010008DF01000890
:1000D000DF010008DD3A0008DF010008DF01000849
:1000E000DF010008DF010008DF010008DF01000870
:1000F000DF010008DF010008DF010008DF01000860
:10010000DF010008DF010008DF010008DF0100084F
:10011000DF010008DF010008E1330008DF0100080B
:1001200059050008DF010008DF010008DF010008B1
:10013000DF010008DF010008DF010008DF0100081F
:10014000DF010008DF010008DF010008DF0100080F
:10015000DF0100086505000871050008DF010008DF
:10016000DF010008DF010008DF010008DF010008EF
:10017000DF010008DF010008DF01000800000000C7
:10018000DF010008DF010008DF010008DF010008CF
:10019000DF010008DF010008DF010008DF010008BF
:1001A000DF010008DF010008DF010008DFF810D0E0
:1001B00000F0DCF800480047613C0008AFF3008025
:1001C000602100200648804706480047FEE7FEE71A
:1001D000FEE7FEE7FEE7FEE7FEE7FEE7FEE7FEE7F7
:1001E000B9330008AD0100082DE9F05F0546002095
:1001F00092469B4688460646814640241BE0284698
:1002000041464746224600F0A1F853465A46C01AD6
:10021000914110D311461846224600F088F82D1A55
:1002200067EB01084F4622460120002100F07FF8CD
:1002300017EB00094E41201EA4F10104DFDC484603
:1002400031462A464346BDE8F09F2DE9FE439946D4
:1002500015468846074601AC022942D3002D40D0FE
:1002600000200290A8F101004FF0FF36009022E03C
:1002700000FB057201FB057011464A4690470028B5
:1002800005DC54F82600304444F8260013E060688A
:100290002A4600FB057154F8040C00FB057007E0CA
:1002A0000B7890F800C001F801CB00F8013B521E1A
:1002B000002AF5D1764254F8040C61688842D7DCF4
:1002C0004B462A463846FFF7C0FF54F8040C4B460D
:1002D000A8EB0001401C00FB05702A46491EFFF7F1
:1002E000B4FFBDE8FE8340EA01039B0703D009E0A9
:1002F00008C9121F08C0042AFAD203E011F8013B12
:1003000000F8013B521EF9D27047D2B201E000F86A
:10031000012B491EFBD270470022F6E710B51346A9
:100320000A4604461946FFF7F0FF204610BD202A72
:1003300004DB203A00FA02F1002070479140C2F13C
:10034000200320FA03F3194390407047202A04DB6E
:10035000203A21FA02F00021704721FA02F3D0403E
:10036000C2F120029140084319467047064C074DE0
:1003700006E0E06840F0010394E807009847103475
:10038000AC42F6D3FFF716FFE860000808610008EA
:1003900010B50246906B016C11F0500F06D0016C45
:1003A00011F0100F28D000F0D1FA10BD016C41F40B
:1003B0000071016401688A6812F0405F19D1027E01
:1003C000BAB9CA6A12F4700F03D08A6812F4806F47
:1003D0000FD14A6822F020024A60016C21F480713A
:1003E0000164016C11F4805F03D1016C41F00101E3
:1003F000016400F047FA10BD806BC16CBDE810408D
:100400001046084710B5806B40210164416C41F0F3
:100410000401416400F09AFA10BD10B5806B00F041
:1004200065FA10BD4A494A6822F440324A604A6877
:1004300043681A434A6001684A6822F480724A603D
:1004400001684A68036942EA03224A6001684A680F
:1004500022F040724A6001684A6883681A434A6021
:1004600001688A6822F400628A6001688A68C36849
:100470001A438A60816A6FF07062D14214D00168B9
:100480008A6822F070628A6001688A68836A1A4307
:100490008A6001688A6822F040528A6001688A682E
:1004A000C36A1A438A6009E001688A6822F07062B0
:1004B0008A6001688A6822F040528A6001688A680E
:1004C00022F002028A6001688A68037E42EA4302DF
:1004D0008A6090F8201089B101684A6842F400628D
:1004E0004A6001684A6822F460424A6001684A68CA
:1004F000436A5B1E42EA43324A6004E001684A688C
:1005000022F400624A600168CA6A22F47002CA6278
:100510000168CA6A838B5B1E42EA0352CA620168A1
:100520008A6822F400728A6001688A6890F8303024
:1005300042EA43228A6001688A6822F480628A6003
:1005400001688A68406942EA80208860704700003C
:1005500000230140FEE70000014800F09DBB0000C1
:1005600014190020014800F097BB0000CC190020AE
:10057000014800F091BB0000001B002001680A4BFD
:10058000CAB2103AA3FB02321209084B9B5CC36546
:10059000032A04D96FF30901091D816502E06FF395
:1005A00009018165806D7047ABAAAAAADE600008C8
:1005B000014600208A6A8B69002B0FD0B3F5005FDB
:1005C0001DD08AB3012A30D0022A2ED0032A04D1AA
:1005D000C96A11F0807F00D0012070471AB1012A4A
:1005E00007D0022AF9D1C96A11F0807FF5D0012025
:1005F0007047C96AB1F1C07FFAD1012070475AB182
:10060000012A0BD0022A07D0032AF7D1C96AB1F117
:10061000C07FF3D10120704701207047C96A11F0F3
:10062000807FFAD001207047FFE70120704710B4A7
:10063000D0F800C0DCF8004024F48024CCF800405E
:10064000D0F800C0CCF804308368402B05D0036894
:1006500099600068C26010BC704703689A600068C7
:10066000C16010BC704770472DE9F84F0026141A7E
:1006700086465B1A701EDDF830C00A9F35468B46F1
:10068000002C02DD4FF0010102E003D14FF0000128
:100690008A4602E08246C4F10004002B02DD4FF0DE
:1006A000010002E003D14FF00000814602E08146E4
:1006B000C3F100039C4201DD224600E01A460020FF
:1006C000511C009112E000BF0BFB0CE80B99264473
:1006D0001D4421F81870964201DDB61AD6449542A1
:1006E00001DDAD1ACB44401C009980B28842EBDB9F
:1006F000BDE8F88F7047000038B44FF0000CCDF81B
:1007000000C090F83C20012A1BD0012280F83C2038
:100710000A680724092A17D90368DD680A3A02EB38
:10072000420204FA02F225EA0202DA600A788B68D1
:100730000A3A02EB420293400268D4682343D36032
:1007400014E038BC0220704703681D6902EB4202C6
:1007500004FA02F225EA02021A610A788B6802EBB7
:100760004202934002681469234313614A681F24BC
:10077000072A15D203685D6B521E02EB820204FA4F
:1007800002F225EA02025A630A8893B20A79521EDB
:1007900002EB820293400268546B234353632CE0C4
:1007A0000D2A15D203681D6BD21F02EB820204FAD8
:1007B00002F225EA02021A630A8893B20A79D21F6A
:1007C00002EB820293400268146B2343136314E02C
:1007D0000368DD6A0D3A02EB820204FA02F225EAAE
:1007E0000202DA620A8893B20A790D3A02EB8202B7
:1007F00093400268D46A2343D3621D4A1D4B0468A8
:100800009C420AD10C68122C07D1546824F40004CD
:100810005460546844F48004546004689C4221D1BC
:10082000154C0B68A34201D0112B1BD1536823F444
:1008300080035360536843F4000353600968A14286
:1008400010D10E490E4A0968B1FBF2F101EB8101AA
:1008500049000091009929B10099491E0091009921
:100860000029F9D180F83CC038BC00207047000056
:10087000002301400020014012000010240000204D
:1008800040420F003EB5164C2078012827D115496B
:10089000BC2201F5BC70FFF726FD02202070052068
:1008A0005E21CDE90010029060780323C0EB0011B7
:1008B00001EB40100C49052201EBC0010948BC3195
:1008C000143802F0F1FB60780321401CB0FBF1F218
:1008D00001FB12006070022801D1002060603EBD63
:1008E000080000209C020020D00400203EB5134CDC
:1008F0002078002820D11249BC2201F5BC70FFF7F6
:10090000F2FC10491422A1F5BC70FFF7ECFC0120A9
:10091000207005205E21CDE900100290607803234D
:10092000C0EB001101EB40100749052201EBC001AB
:100930000348143802F0B8FB3EBD00000800002058
:10094000E001002044030020D0040020704770B56F
:1009500004460025002C03D0206C002610B107E0CF
:10096000012070BD204600F01DF8666484F83C60EC
:10097000206C10F0100F04D0012584F83C6028464C
:1009800070BD206C20F4885040F0020020642046A6
:10099000FFF748FD6664206C20F0020040F0010083
:1009A0002064EAE770B586B0064614216846FFF772
:1009B000B3FC1D493068884234D11C4800250168C9
:1009C00041F480710160006800F480700590174860
:1009D0001438016841F0040101600068694600F0C4
:1009E00004000590042000900320CDE90105104883
:1009F00000F0F6FA104C0F48C4E900050015A56098
:100A0000C4E90350400060618000A0614011C4E966
:100A100007052046656200F035FA08B1FFF76AFE67
:100A2000B463A66306B070BD0020014044380240A4
:100A300000080240106402401419002038B5044632
:100A40000023009394F83C00012809D0012084F889
:100A50003C002068D0F808C01CF0010F02D018E05C
:100A6000022038BDD0F808C04CF0010CC0F808C016
:100A70004F48DFF840C10068B0FBFCF000EB4000DD
:100A80000090009828B10098401E0090009800281F
:100A9000F9D12068D0F808C01CF4807F05D0D0F8C8
:100AA00008C02CF4807CC0F808C02068D0F808C0CA
:100AB0001CF0010F72D0D4F840C02CF0010C2CF4C3
:100AC000C06C4CF4807CC4F840C0406810F4806F67
:100AD00005D0206C20F4005040F480502064206C3D
:100AE00010F4805F04D0606C20F00600606400E0C9
:100AF000636484F83C30304DA36B3048D863A36BFB
:100B00002F481864A36B2F48D86423686FF0220025
:100B100018602068436843F08063436020688368FE
:100B200043F4807383602068134600F14C0C0A463E
:100B30006146A06B00F01CFA6868234910F01F0F93
:100B400007D02068884231D1816811F0405F1FD002
:100B50002CE02068884212D01C4A904204D1D1F87F
:100B6000042312F01F0F0AD0A0F18042B2F5913297
:100B70001CD1D1F8041301F01F01102916D281688D
:100B800011F0405F12D1816841F0804181600DE039
:100B9000816841F08041816008E0FFE7206C40F00F
:100BA00010002064606C40F001006064002038BDDB
:100BB0002400002040420F00002301409103000860
:100BC0001B0400080504000800200140002101402A
:100BD0002DE9F0410446A66D00F030FB054694F87F
:100BE00035000027022806D08020606584F8347024
:100BF0000120BDE8F0812068016821F01601016044
:100C00002068416921F080014161206C08B9A06C25
:100C100020B12068016821F00801016020680168A6
:100C200021F0010101602068006810F0010F12D06E
:100C300000F004FB401B052808D920206065032034
:100C400084F8350084F83470BDE8F08120680068CD
:100C500010F0010FECD194F85C003F2101FA00F094
:100C6000B060012084F8350084F834700020BDE8BD
:100C7000F08190F83510022903D0802141650120D0
:100C80007047052180F835100068016821F00101E6
:100C900001600020704700002DE9F84304464FF042
:100CA0000008CDF8008076484FF416510068B0FB7C
:100CB000F1F7A56D2E6894F85C00082101FA00F0A8
:100CC000304211D02068026812F0040F0CD0026884
:100CD00022F00402026094F85C0001FA00F0A860BF
:100CE000606D40F00100606594F85C004FF0010910
:100CF00009FA00F0304209D02168496911F0800FEB
:100D000004D0A860606D40F00200606594F85C104B
:100D100004208840304209D02168096811F0020F90
:100D200004D0A860606D40F00400606594F85C1029
:100D300010208840304224D02168096811F0080F43
:100D40001FD0A8602068016811F4802F0DD00068C2
:100D500010F4002F04D0A16C99B12046884710E010
:100D6000216C71B1204688470BE0016811F4807F47
:100D700003D1016821F008010160216C09B120460E
:100D8000884794F85C1020208840304251D0216878
:100D9000096811F0100F4CD0A86094F835000528B0
:100DA0000DD02068016811F4802F32D0006810F453
:100DB000002F29D0E16B59B32046884739E02068DD
:100DC000016821F0160101602068416921F080016D
:100DD0004161206C08B9A06C20B12068016821F045
:100DE0000801016094F85C003F2101FA00F0A8605E
:100DF00084F8359084F83480216D00293ED001B00C
:100E00002046BDE8F0430847616C09B12046884799
:100E10000FE0016811F4807F07D1016821F0100113
:100E2000016084F8359084F83480E16B09B1204684
:100E30008847606D002821D0606D10F0010F15D03B
:100E4000052084F835002068016821F00101016067
:100E50000098401C0090B84204D82068006810F048
:100E6000010FF5D184F8359084F83480E16C0029C5
:100E700004D001B02046BDE8F0430847BDE8F88340
:100E8000240000202DE9F041044600F0D7F9054682
:100E9000DCB1022084F83500002684F83460206834
:100EA000016821F0010101602068006810F0010F65
:100EB00013D000F0C3F9401B052809D92020606534
:100EC000032084F83500BDE8F0810120BDE8F08101
:100ED0002068006810F0010FEBD121680868234AF0
:100EE0001040A3686268D4F810C01A43E36843EA6C
:100EF0000C031A4363691A43A3691A43E3691A434B
:100F0000236A1A431043626A042A03D1236BE26AFC
:100F10001A43104308602068406920F00701606AA6
:100F200040EA0105012704280ED1A06A0543E06AC2
:100F300050B12046FFF73CFB30B14020606584F89B
:100F400035700120BDE8F081206845612046FFF73B
:100F500015FB94F85C103F2202FA01F1816066658E
:100F600084F835700020BDE8F08100003F8010F06B
:100F700070B504460025A66D94F8340001280DD004
:100F8000012084F8340094F835C00020BCF1010F32
:100F900006D084F834000225284670BD022070BDBA
:100FA0004FF0020C84F835C060652046FFF73FFB28
:100FB00094F85C003F2101FA00F0B06020680168FD
:100FC00041F016010160206C20B12068016841F0F9
:100FD000080101602068016841F001010160DBE760
:100FE0002DE9F84F0022DFF82C92DFF82CE2DFF831
:100FF0002CA24FF0010B03274FF00F080BFA02FC55
:101000000B6803EA0C0363457AD10C7904F00304FE
:10101000012C01D0022C14D18568540007FA04F683
:10102000B543CE6806FA04F42C438460446824EA8D
:101030000C0C0C79C4F30014944044EA0C0CC0F876
:1010400004C0D1F804C037EA0C0C0CD0C4684FEAD5
:10105000420C07FA0CF5AC438D6805FA0CFC4CEA1F
:10106000040CC0F80CC091F804C00CF0030CBCF1E7
:10107000020F12D14FEAD20C00EB8C04256A4FEA22
:10108000427C4FEADC6C08FA0CF6B5430E6906FAAE
:101090000CFC4CEA050CC4F820C004684FEA420C72
:1010A00007FA0CF5AC430D7905F0030505FA0CFCC5
:1010B0004CEA040CC0F800C0D1F804C01CF4403F56
:1010C0001ED0D9F800C04CF4804CC9F800C0D9F843
:1010D00000C00CF4804CCDF800C022F0030C0CF1E1
:1010E000804505F59835D5F808C89407240F08FA07
:1010F00004F62CEA0606704503D14FF0000C2FE0F1
:1011000067E0A0F1804CBCF5013C68D0A0F1804CB8
:10111000BCF5023C66D0A0F1804CBCF5033C64D029
:10112000A0F1804CBCF5043C62D0A0F1804CBCF531
:10113000053C60D0A0F1804CBCF5063C5ED0A0F12F
:10114000804CBCF5073C5CD0A0F1804CBCF5083C61
:101150005AD0A0F1804CBCF5093C58D04FF00A0C95
:101160000CFA04FC4CEA060CC5F808C8DAF800C012
:101170002CEA030C4C6814F4801F01D04CEA030CD9
:10118000CAF800C0264CD4F800C02CEA030C4D6805
:1011900015F4001F01D04CEA030CC4F800C0214C28
:1011A000D4F800C02CEA030C4D6815F4003F01D0C0
:1011B0004CEA030CC4F800C01B4CD4F800C02CEA65
:1011C000030C4D6815F4803F01D04CEA030CC4F8C1
:1011D00000C0521C102AFFF411AFBDE8F88F4FF089
:1011E000010CBDE74FF0020CBAE74FF0030CB7E774
:1011F0004FF0040CB4E74FF0050CB1E74FF0060CCC
:10120000AEE74FF0070CABE74FF0080CA8E74FF044
:10121000090CA5E74438024000000240083C0140A8
:101220000C3C0140043C0140003C0140002A01D03C
:10123000816170470904816170470000014880683E
:10124000704700002800002002488168027811449D
:10125000816070472800002010B50B48016841F4F8
:1012600000710160016841F480610160016841F42E
:1012700080710160032000F085F8002000F006F87E
:1012800000F026F8002010BD003C024070B5044676
:101290000D4D4FF47A712878B1FBF0F00B490968D5
:1012A000B1FBF0F000F0AEFD08B1012070BD102CD4
:1012B00007D200222146501E00F030F86C6000205A
:1012C00070BD012070BD0000280000202400002017
:1012D0000A4808B5016841F480410160006800F4E3
:1012E000804000900548001F016841F08051016076
:1012F000006800F08050009008BD000044380240B3
:1013000000280ADB00F01F01012202FA01F1400966
:10131000800000F1E020C0F80011704710B4184BB5
:101320001B68C3F30223C3F1070CBCF1040F01D9FE
:101330004FF0040C1C1D072C01D2002300E0DB1E23
:10134000012404FA0CFCACF1010C0CEA01019940F7
:1013500004FA03F35B1E1A401143002806DB00F178
:10136000E020090180F8001410BC704700F00F0065
:1013700000F1E020090180F8141D10BC7047000046
:101380000CED00E000F00700064A11684FF6FF037D
:10139000194041EA002040F0FD7040F0806010608C
:1013A000704700000CED00E0F8B51B48016841F003
:1013B00080510160006800F080500090174F0126B6
:1013C0003E64FFF73BFF0546154C606810F4803F14
:1013D0000BD1FFF733FF401BB0F57A7F01D9032013
:1013E000F8BD606810F4803FF3D07E64FFF726FFFD
:1013F0000546606810F4003F0BD1FFF71FFF401B4C
:10140000B0F57A7F01D90320F8BD606810F4003F81
:10141000F3D00020F8BD00004038024000000E422A
:10142000007000402DE9F04704460D46002C13D013
:10143000DFF85491D9F80000EFB200F00F00A84295
:101440000DD289F80070D9F8000000F00F00A84212
:1014500005D00120BDE8F0870120BDE8F0872068B5
:101460004A4E10F0020F14D010F0040F03D0306871
:1014700040F4E0503060207810F0080F03D030685E
:1014800040F4604030603068A16820F0F00008430C
:101490003060207810F0010F3ED060683C49012890
:1014A00008D002280DD003280BD0096811F0020FD4
:1014B00028D00AE0096811F4003F06D10120BDE8F8
:1014C000F087096811F0007F19D0316821F003011D
:1014D00008433060FFF7B2FE80463068616800F074
:1014E0000C00B0EB810F17D041F2883AFFF7A6FE4F
:1014F000A0EB0800504508D90320BDE8F087012083
:10150000BDE8F0870120BDE8F0873068616800F031
:101510000C00B0EB810FE9D1D9F8000000F00F000A
:10152000A8420AD989F80070D9F8000000F00F002D
:10153000A84202D00120BDE8F087207810F0040F07
:1015400005D03068E16820F4E0500843306020782E
:1015500010F0080F06D03068216920F4604040EA9E
:10156000C100306000F042F831680A4AC1F303114B
:10157000515CC8400849086008480068FFF786FECB
:101580000020BDE8F0870000003C0240083802401F
:1015900000380240C6600008240000202C00002013
:1015A00001480068704700002400002000B5FFF7E4
:1015B000F7FF04490968044AC1F38221515CC8401D
:1015C00000BD000008380240D660000800B5FFF7F3
:1015D000E7FF04490968044AC1F34231515CC8403D
:1015E00000BD000008380240D660000810B517485A
:1015F000006810F00C01164816D0164B042912D0C2
:10160000082911D1144C216801F03F02216811F41E
:10161000800F0AD02068C0F38810A0FB03010023CC
:10162000FEF7E2FD09E0184610BD21680023C1F372
:101630008811A1FB0001FEF7D7FD2168C1F301412C
:10164000491C4900B0FBF1F010BD00000838024011
:101650000024F40040787D01043802402DE9F84F61
:101660000446002C12D02078FB4E10F0010FA6F19A
:10167000040563D0301D016801F00C0104290CD071
:10168000006800F00C00082803D010E00120BDE83D
:10169000F88F306810F4800F09D0286810F4003FEC
:1016A0004CD06068002849D10120BDE8F88F6068FF
:1016B000B0F5803F14D0B0F5A02F16D0286820F4E4
:1016C00080302860286820F480202860606810B38B
:1016D000FFF7B4FD0746286810F4003F0ED02DE058
:1016E000286840F480302860F0E7286840F48020C3
:1016F0002860286840F480302860E7E7FFF79EFD07
:10170000C01B642802D90320BDE8F88F286810F4B4
:10171000003FF3D012E0FFF791FD0746286810F470
:10172000003F0BD0FFF78AFDC01B642802D90320BD
:10173000BDE8F88F286810F4003FF3D12078C74F38
:1017400010F0020F4FF0000957D0C548016811F0A2
:101750000C0F14D0006800F00C00082803D130688A
:1017600010F4800F0BD0E06880B301203860FFF7E1
:1017700065FD8046286810F0020F12D01EE0286830
:1017800010F0020F05D0E068012802D00120BDE86A
:10179000F88F2868216920F0F80040EAC10028602D
:1017A0002BE0FFF74BFDA0EB0800022802D9032035
:1017B000BDE8F88F286810F0020FF2D02868216980
:1017C00020F0F80040EAC100286016E0FFE7C7F803
:1017D0000090FFF733FD8046286810F0020F0CD010
:1017E000FFF72CFDA0EB0800022802D90320BDE87A
:1017F000F88F286810F0020FF2D1207810F0080F4F
:1018000035D09848DFF860A26169C1B1012101605B
:10181000FFF714FD8046DAF8000010F0020F26D121
:10182000FFF70CFDA0EB0800022802D90320BDE859
:10183000F88FDAF8000010F0020FF1D017E0C0F8CE
:101840000090FFF7FBFC8046DAF8000010F0020F72
:101850000DD0FFF7F3FCA0EB0800022802D903200B
:10186000BDE8F88FDAF8000010F0020FF1D120780F
:1018700010F0040F71D04FF000087C48006810F0A1
:10188000805F0AD17948016841F0805101600068A9
:1018900000F0805000904FF00108DFF8D4B1DBF881
:1018A000000010F4807F1BD1DBF8000040F4807052
:1018B000CBF80000FFF7C2FC8246DBF8000010F412
:1018C000807F0DD1FFF7BAFCA0EB0A00022802D9F5
:1018D0000320BDE8F88FDBF8000010F4807FF1D022
:1018E000A068DFF890B1012818D005281DD0DBF8DA
:1018F000000020F00100CBF80000DBF8000020F031
:101900000400CBF80000A06840B3FFF797FC8246C4
:10191000DBF8000010F0020F14D03EE0DBF800000E
:1019200040F00100CBF80000EDE7DBF8000040F0EC
:101930000400CBF80000DBF8000040F00100CBF819
:101940000000E0E7FFF77AFCA0EB0A0141F28830E3
:10195000814204D90320BDE8F88F26E005E0DBF8DA
:10196000000010F0020FEDD017E0FFF767FC824691
:10197000DBF8000010F0020F0FD0FFF75FFCA0EBC8
:101980000A0141F28830814202D90320BDE8F88F74
:10199000DBF8000010F0020FEFD1B8F1010F04D115
:1019A0003248016821F080510160A069F0B32C49F0
:1019B00009684FF0FF3801F00C01082966D00228B1
:1019C00010D0C7F86090FFF739FC0446286810F083
:1019D000007F2BD0FFF732FC001B022851D90320D7
:1019E000BDE8F88FC7F86090FFF728FC81462868AB
:1019F00010F0007F0CD0FFF721FCA0EB09000228BB
:101A000002D90320BDE8F88F286810F0007FF2D1DA
:101A1000216AE069A26A0843616A08EB52028901FF
:101A200041EA0241084394F82C1000E055E040EAF6
:101A30000160306001203866FFF700FC044628682A
:101A400010F0007F49D1FFF7F9FB001B022813D9E2
:101A50000320BDE8F88F0000043802400000474230
:101A600008380240800E4742743802404038024035
:101A70000070004070380240286810F0007FE2D00B
:101A80002BE0286810F0007FA4D126E0012822D0A6
:101A90003068E26900F4800191421AD1226A00F0B4
:101AA0003F01914215D147F6C071626A0140B1EB26
:101AB000821F0ED1A26A00F4403108EB5202B1EB52
:101AC000024F06D194F82C1000F07060B0EB016F5B
:101AD00003D00120BDE70120BBE70020B9E770B5C6
:101AE0000446002C09D0606A002540B1256165617B
:101AF000A56294F8510040B10CE0012070BD60680F
:101B0000B0F5827FF4D0E561F2E784F850502046CA
:101B100000F044F8022084F851002068016821F0A8
:101B200040010160A088218900F4827001F4044121
:101B30000843A18901F400610843217C01F00201FE
:101B40000843217D01F001010843218B01F400715C
:101B50000843217F01F03801084394F8201001F078
:101B600080010843218D01F4005108432168086079
:101B7000A169042000EA114094F8241001F010013A
:101B80000143206841602068C16921F40061C1619E
:101B90006565012084F85100002070BD2DE9F047F3
:101BA00086B0064614216846FEF7B6FB2849306821
:101BB00088424AD127480025016841F4801101601C
:101BC0000068244900F4801014390590086840F03A
:101BD00020000860086800F020000590086840F0C8
:101BE000800008600868022400F080000590481515
:101BF00001274FF003084FF005098DE8910369466E
:101C00001548FFF7EDF94FF0400A01AACDF800A002
:101C100082E8900369461148FFF7E2F9114C104839
:101C200020604FF06060C4E9010AB802C4E90350C3
:101C30006561A561E561256220466562FFF722F9CD
:101C400008B1FEF757FDB464A66306B0BDE8F0879F
:101C5000005001404438024000140240001C024081
:101C6000A0640240CC1900202DE9F84F04468B46B1
:101C700092461D46002694F8500001280DD04FF0E2
:101C8000010984F85090FFF7D9FA074694F85100FB
:101C9000B046012804D00226ADE00220BDE8F88F4E
:101CA000BBF1000F1CD05FEA0A0019D0032084F8B2
:101CB0005100C4F85480C4F830B0A4F834A0A4F89B
:101CC00036A0C4F83880A4F83C80A4F83E80C4F85C
:101CD0004480C4F84080A068B0F5004F02D00BE00B
:101CE000012688E02068016821F040010160206839
:101CF000016841F4804101602068016811F0400FE3
:101D000003D1016841F040010160E068B0F5006F67
:101D100005D0606888B3BAF1010F31D03AE060684D
:101D200010B1BAF1010F09D1206B21680088C86099
:101D3000206B801C2063E08E401EE086E08E002831
:101D400045D02068816811F0020F09D0216B098805
:101D5000C160206B801C2063E08E401EE08608E09E
:101D6000FFF76CFAC01BA84202D3B5F1FF3F05D1C3
:101D700025B1E08E0028E4D129E001E003263AE015
:101D8000206B216800780873206B401C2063E08E74
:101D9000401EE086E08ED0B12068816811F0020F0D
:101DA00009D0216B09780173206B401C2063E08E01
:101DB000401EE08608E0FFF741FAC01BA84202D3AC
:101DC000B5F1FF3F0ED16DB1E08E0028E4D13A4667
:101DD0002946204601F008FA08B120206065A06875
:101DE00010B105E0032606E02068C1688068009015
:101DF000606D00B1012684F8519084F8508030461F
:101E0000BDE8F88F401EB0F1807F01D301207047FC
:101E10004FF0E0214861044AF020107000208861F2
:101E2000072008610020704723ED00E070477047ED
:101E300030B490F83C20012A44D0012480F83C4082
:101E4000022280F83D200268D2F804C093682CF08A
:101E5000700C0D6845EA0C0CC2F804C00268A2F1CF
:101E6000804CBCF5803C20D0B2F1804F1DD0A2F157
:101E7000804CBCF5806C18D0A2F1804CBCF5006C95
:101E800013D0A2F1804CBCF5406C0ED0A2F1804C76
:101E9000BCF5823C09D0A2F1804CBCF5A03C04D03A
:101EA000A2F1804CBCF5C05C04D123F080034968EA
:101EB0001943916080F83D40002180F83C1030BC0F
:101EC0000020704730BC0220704710B50446002C3B
:101ED00003D094F83D0010B107E0012010BD0020B0
:101EE00084F83C00204600F01FF8022084F83D00F2
:101EF000211D206801F07AFA012084F8460084F858
:101F00003E0084F83F0084F8400084F8410084F8E3
:101F1000420084F8430084F8440084F8450084F8C3
:101F20003D00002010BD000008B501681448B1F163
:101F3000804F14D0134A914220D1016841F0100122
:101F400001600068002200F0100000901146362069
:101F5000FFF7E4F93620BDE80840FFF7D1B9016882
:101F600041F0010101600068002200F001000090D2
:101F700011461C20FFF7D2F91C20ECE708BD000039
:101F8000403802400010004090F83D10012901D077
:101F900001207047022180F83D100168CA6842F0B4
:101FA0000102CA600068A0F18041B1F5803126D0FD
:101FB000B0F1804F23D0A0F18041B1F580611ED0F7
:101FC000A0F18041B1F5006119D0A0F18041B1F5D7
:101FD000406114D0A0F18041B1F582310FD0A0F161
:101FE0008041B1F5A0310AD0A0F18041B1F5C051D6
:101FF00005D0016841F0010101600020704781684F
:1020000001F007010629F8D0016841F001010160E3
:10201000F3E770B50446002594F83C00012818D079
:10202000012684F83C60022084F83D002068826824
:1020300022F0770222F47F4282600868502839D06B
:102040000EDC202854D006DC002851D0102811D1F5
:102050004EE0022070BD30284AD040280AD13DE031
:10206000602831D070280DD0B0F5805F03D0B0F576
:10207000005F13D0012584F83D60002084F83C0007
:10208000284670BDCB684A688968206801F023FA49
:102090002068816841F077018160ECE7CB684A688D
:1020A0008968206801F017FA2068816841F480414E
:1020B0008160E0E7CA684968206801F0FBFA5021B6
:1020C000206801F013FAD6E7CA684968206801F071
:1020D00004FB6021206801F009FACCE7CA6849686E
:1020E000206801F0E7FA4021206801F0FFF9C2E71B
:1020F00022680146104601F0F9F9BCE7704770B557
:102100000446206801694FF0000511F0020F17D056
:10211000C16811F0020F13D0E91E01610120207780
:102120002068806910F0030F03D02046FFF7E6FF18
:1021300005E0204600F09DF8204600F036F92577AE
:102140002068016911F0040F18D0C16811F0040F64
:1021500014D06FF0040101610220207720688069AB
:1021600010F4407F03D02046FFF7C8FF05E020466B
:1021700000F07FF8204600F018F925772068016903
:1021800011F0080F18D0C16811F0080F14D06FF0CB
:1021900008010161042020772068C06910F0030F56
:1021A00003D02046FFF7AAFF05E0204600F061F8C3
:1021B000204600F0FAF825772068016911F0100F29
:1021C00018D0C16811F0100F14D06FF01001016128
:1021D000082020772068C06910F4407F03D0204693
:1021E000FFF78CFF05E0204600F043F8204600F0A2
:1021F000DCF825772068016911F0010F09D0C1686A
:1022000011F0010F05D06FF001010161204600F0CF
:102210003BF92068016911F0800F09D0C16811F005
:10222000800F05D06FF0800101612046FFF7FEFDB1
:102230002068016911F0400F09D0C16811F0400F0A
:1022400005D06FF040010161204600F031F92068AF
:10225000016911F0200F0BD0C16811F0200F07D0D9
:102260006FF0200101612046BDE87040FFF7DFBD3F
:1022700070BD704770B504460D46002694F83C00CA
:1022800001280FD0012084F83C006AB1042A1FD035
:10229000082A32D00C2A44D00126002084F83C00C1
:1022A000304670BD022070BD2946206801F026F935
:1022B0002068816941F0080181612068816921F00D
:1022C00004018161206881692A6911438161E4E721
:1022D0002946206801F04AF92068816941F40061CB
:1022E00081612068816921F4806181612068816950
:1022F0002A6941EA02218161CFE72946206801F07D
:1023000071F92068C16941F00801C1612068C169A3
:1023100021F00401C1612068C1692A691143C161CA
:10232000BBE72946206801F099F92068C16941F4AA
:102330000061C1612068C16921F48061C1612068C8
:10234000C1692A6941EA0221C161A6E710B50446C4
:10235000002C03D094F83D0010B107E0012010BD1F
:10236000002084F83C00204600F01EF8022084F88B
:102370003D00211D206801F039F8012084F8460055
:1023800084F83E0084F83F0084F8400084F841005F
:1023900084F8420084F8430084F8440084F845003F
:1023A00084F83D00002010BD7047704710B504460A
:1023B000002909D004290AD008290BD094F841003B
:1023C00001280AD0012010BD94F83E00F8E794F8E7
:1023D0003F00F5E794F84000F2E70220D9B3042962
:1023E00047D0082948D084F841000122206801F034
:1023F00063F8234A20682349904201D0884203D1E0
:10240000436C43F4004343642068904224D0B0F10D
:10241000804F21D0A0F18042B2F580621CD0A0F1A3
:102420008042B2F5006217D0A0F18042B2F540625E
:1024300012D0884210D0A0F18041B1F5A0310BD06C
:10244000A0F18041B1F5C05106D0016841F0010111
:102450000160002010BD09E0816801F00701062934
:10246000F7D0016841F001010160F2E784F83E0015
:10247000BBE784F83F00B8E784F84000B5E7000008
:1024800000000140000401400068B0F1804F0CD111
:1024900006490522C868401C90FBF2F302FB1300BA
:1024A000C860002801D100F01FBE7047080000205E
:1024B0007047704770470000F8B5044622681068FE
:1024C000D168536900F00F0CBCF1000F0AD110F075
:1024D000200F07D011F0200F04D02046BDE8F840AF
:1024E00001F0A3B90025BCF1000F75D003F0010C79
:1024F00001F490765CEA06066ED010F0010F06D06B
:1025000011F4807F03D0226C42F00102226410F0AB
:10251000040F06D013F0010F03D0226C42F0020228
:10252000226410F0020F06D013F0010F03D0226CCA
:1025300042F00402226410F0080F08D001F02002DB
:1025400052EA0C0203D0226C42F008022264226C90
:10255000002A35D010F0200F05D011F0200F02D046
:10256000204601F062F920684069C0F38010216CB8
:1025700011F0080F00D148B3204601F014F920688B
:10258000406910F0400F1CD02068143050E8001F44
:1025900021F0400140E80012002AF5D1A06B60B1A3
:1025A0005C490165A06BFEF764FB002808D0A06BB6
:1025B000016D01B0BDE8F04008472046FFF77AFF03
:1025C000F8BD2046FFF776FFF8BD05E0FFE720469F
:1025D000FFF770FF2564F8BD236B012B7ED110F04F
:1025E000100F7BD011F0100F7ED010685068009053
:1025F00050694FF0200310F0400F43D0A16B0868E2
:10260000406880B20028E6D0A28D8242E3D9E085FE
:10261000C869B0F5807F2DD020680C3050E8001FCD
:1026200021F4807140E80012002AF5D120681430AE
:1026300050E8001F21F0010140E80012002AF5D106
:102640002068143050E8001F21F0400140E80012DB
:10265000002AF5D184F83E30256320680C3050E81C
:10266000001F21F0100140E80012002AF5D1A06BF4
:10267000FEF7AEFAA08DE18D401A81B22046FFF739
:1026800018FFF8BDA08DE18D401A81B2E08D0028C1
:10269000F7D00029F5D020680C3050E8002F22F444
:1026A000907240E8002CBCF1000FF4D12068143087
:1026B00050E8002F22F0010240E8002CBCF1000F8E
:1026C000F4D184F83E30256320680C3050E8002FA8
:1026D00022F0100240E80023002B00E004E0F3D1D8
:1026E0002046FFF7E6FEF8BD10F0800F07D011F08E
:1026F000800F04D02046BDE8F84001F079B910F011
:10270000400FF0D011F0400FEDD02046BDE8F8406A
:1027100001F070B8FF36000870B50446002C04D0F4
:1027200094F83D00002510B106E0012070BD84F84A
:102730003C50204600F022F8242084F83D00206818
:10274000C16821F40051C160204601F0D3F820682F
:10275000016921F4904101612068416921F02A0159
:1027600041612068C16841F40051C16025642020A6
:1027700084F83D0084F83E00002070BD70B586B03E
:10278000064614216846FDF7C7FD24493068884293
:1027900041D123480025016841F010010160006823
:1027A00000F0100005901E481438016841F0010146
:1027B00001600068694600F0010005904FF4C060B8
:1027C00000900220CDE9010503200390072004902A
:1027D0001448FEF705FC154C134820604FF00060CC
:1027E00060604020C4E902050001C4E90405A56158
:1027F000E561256220466562FEF744FB08B1FDF7FE
:1028000079FF7463002211462520A663FEF786FD3A
:102810002520FEF775FD06B070BD000000100140D8
:102820004438024000000240B8640240001B00200F
:1028300070472DE9F84304460E4615461F4694F8A6
:102840003D00202802D00220BDE8F883C6B1BDB10A
:1028500094F83C00012816D0012084F83C004FF089
:102860000009C4F84090212084F83D00FEF7E6FC02
:102870008046A584E584A068B0F5805F06D007E0B7
:102880000120BDE8F8830220BDE8F883206980B10B
:102890003546002684F83C90E08CB8B143460022CF
:1028A00080212046009701F0D2F820B10320BDE836
:1028B000F8830025EEE7A5B12168287848606D1CF3
:1028C000E08C401EE084E08C0028E7D143460022E3
:1028D00040212046009701F0BAF848B10320BDE836
:1028E000F88330882168C0F308004860B61CE7E729
:1028F000202084F83D000020BDE8F88337B5044669
:1029000094F83D00202802D003B0022030BD019988
:10291000002937D0002A35D094F83C00012834D063
:10292000012084F83C002162A284E2840025256411
:10293000212084F83D00636B1548D863636B15480C
:102940001864636B1448D864606B0565206813468F
:10295000001DD4F834C002466046FEF709FB21682A
:102960006FF04000086084F83C502068143050E854
:10297000001F41F0800140E80012002AF5D103B0A9
:10298000002030BD03B0012030BD03B0022030BDB7
:10299000593700089D3700080F3700087047704707
:1029A000FEE72DE9F04104461D4616460F462A2053
:1029B00000F0E0F9204600F0D3F9304600F0D0F9FD
:1029C0002B2000F0D7F9384600F0CAF9284600F06D
:1029D000C7F9BDE8F0412C2000F0CCB910B5144681
:1029E0000B460246FFF7DDFF2046BDE8104000F031
:1029F000B7B92DE9F04780461F46581E83B21646E8
:102A0000501E82B20C464046DDF82090FFF7C9FF09
:102A10000AE0454604E0484600F0A2F96D1CADB25C
:102A2000B542F8D3641CA4B2BC42F2D3BDE8F0872F
:102A30002DE9F0411C4615460E460746DDF8188084
:102A4000FFF7AFFFE81B4000A11B48434146BDE82C
:102A5000F04182B20A230148FFF706B97419002039
:102A600070B5684D4FF40054002221462846FEF709
:102A7000DDFB4FF4C87001F0A4F80122214628467E
:102A8000FEF7D4FBC82001F09CF8642001F099F80F
:102A9000112000F06FF9782001F093F8362000F053
:102AA00069F9002000F07AF93A2000F063F9052076
:102AB00000F074F9B22000F05DF90C2000F06EF91E
:102AC0000C2000F06BF9002000F068F9332000F0D2
:102AD00065F9332000F062F9B72000F04BF935209A
:102AE00000F05CF9BB2000F045F9192000F056F920
:102AF000C02000F03FF92C2000F050F9C22000F077
:102B000039F9012000F04AF9C32000F033F912200E
:102B100000F044F9C42000F02DF9202000F03EF927
:102B2000C62000F027F90F2000F038F9D02000F07F
:102B300021F9A42000F032F9A12000F02FF9E020C3
:102B400000F018F9D02000F029F9042000F026F94F
:102B50000D2000F023F9112000F020F9132000F0DF
:102B60001DF92B2000F01AF93F2000F017F954202E
:102B700000F014F94C2000F011F9182000F00EF9C3
:102B80000D2000F00BF90B2000F008F91F2000F0D9
:102B900005F9232000F002F9E12000F0EBF8D02045
:102BA00000F0FCF8042000F0F9F80C2000F0F6F832
:102BB000112000F0F3F8132000F0F0F82C2000F0C2
:102BC000EDF83F2000F0EAF8442000F0E7F851204B
:102BD00000F0E4F82F2000F0E1F81F2000F0DEF80C
:102BE0001F2000F0DBF8202000F0D8F8232000F0B0
:102BF000D5F8212000F0BEF8BDE87040292000F093
:102C0000B9B80000001C02402DE9FF4F81B0044616
:102C1000DDE90F7B4FEA570800904FEAD80000FB30
:102C200007FA203AD0B20390029802993844401E25
:102C300083B204EB0800401E82B22046FFF7B1FECB
:102C4000002637E0102F24D0202F35D11C490398BF
:102C500001EB80105FF0000510F80690BBF1000F4B
:102C60004FF0010000FA05F000EA090016D020B18B
:102C70002046049A0299FFF7B1FE641C0098A4B2A2
:102C8000211A414510D10298009C401C80B202904C
:102C90000EE00C49039801EB0010DBE708B1049843
:102CA00000E00E9800F05CF86D1CEDB2082DD5D355
:102CB000761CB6B25645C5D305B0BDE8F08F00000E
:102CC00060440008703E00082DE9FF4F83462DED5B
:102CD000020B83B0DFED210A139F154620EE200A78
:102CE0007E080024A246BCEEC00A10EE100A1FFAAD
:102CF00080F92DE0281B401EC1B20A2001F0B0F877
:102D0000B9FBF0F00A21B0FBF1F201FB1208A81E9A
:102D100084420ED1129A00FB06B08DE8840480B282
:102D20002E22089B0699FFF76FFF641C6D1CE4B20E
:102D3000EDB212988DE8810408F13000C2B204FBB4
:102D400006B080B2089B0699FFF75EFF641CE4B2F0
:102D5000AC42CFD309B0BDE8F08F00000000C842FC
:102D600010B50446000A00F019F8E0B2BDE81040C2
:102D700000F014B870B5084C0546002280212046AA
:102D8000FEF754FA284600F009F82046BDE87040E6
:102D900001228021FEF74ABA001C024001B5044816
:102DA0000223012269460068FEF75EFF08BD0000AD
:102DB000000000201FB500211748009101910291E9
:102DC000144A039102604FF48032C0E9012101618D
:102DD000017680F820101203C26201244FF0407285
:102DE000C4618262C16080F830404461FDF7AFFD8C
:102DF00008B1FDF77FFC0C20CDE90004072002900C
:102E000069460548FDF778FC002801D0FDF772FC03
:102E10001FBD000000200140CC180020114808B55B
:102E2000016841F4800101600068002200F4800024
:102E3000009011463820FEF771FA3820FEF760FA4C
:102E4000002211464520FEF769FA4520FEF758FAA0
:102E5000002211464620FEF761FABDE808404620F0
:102E6000FEF74EBA30380240F0B587B014216846FC
:102E7000FDF752FA30480024016841F0200101605A
:102E8000016801F020010591016841F080010160B5
:102E9000016801F080010591016841F004010160C1
:102EA000016801F004010591016841F040010160F1
:102EB000016801F040010591016841F001010160E4
:102EC000016801F001010591016841F00201016012
:102ED00000681A4E00F00200059001228021304661
:102EE000FEF7A4F900224FF400513046FEF79EF998
:102EF000134F0022C0213846FEF798F94FF40250D4
:102F00000125CDE900050320CDE902506946304690
:102F1000FEF766F8C026CDE90064694609480294C8
:102F2000FEF75EF80096CDE90154694638460394F1
:102F3000FEF756F807B0F0BD30380240001C0240E2
:102F400000040240001802400F4810B50D4901600E
:102F50004FF48271416000218160C1604FF40072C2
:102F60000161C0E90512C1610162416281620A2109
:102F7000C162FEF7B4FD002803D0BDE81040FDF7A4
:102F8000B9BB10BD005001407419002030B58DB0A0
:102F900000240794089409940A940B941C21684611
:102FA0000C94FDF7B9F91E484FF08041802501606F
:102FB00042F22831C0E901144F218561C0E90314B0
:102FC000FEF783FF08B1FDF795FB4FF480500790A3
:102FD00007A91348FFF71DF808B1FDF78BFB104850
:102FE000FFF7B4F908B1FDF785FB5020CDE90B05DB
:102FF0000BA90B48FEF71CFF08B1FDF77BFB602017
:1030000000902720CDE90104042269460448049475
:10301000FFF730F9002801D0FDF76CFB0DB030BD93
:103020002C1A00201CB500240F4800940D4901946F
:10303000016042F22831C0E901144FF4FA71C16015
:1030400080218161FEF741FF08B1FDF753FB009439
:10305000694605480194FEF7EBFE002801D0FDF714
:1030600049FB1CBD00100040741A00200C4810B52C
:103070000A4901604FF4E1314160002181600C2276
:10308000C160C0E904128161C161FFF745FB0028FE
:1030900003D0BDE81040FDF72DBB10BD001001406E
:1030A000BC1A0020FEE770472DE9FC418846DDE9A7
:1030B00009540021089E009101911F467119214475
:1030C00013460A46064900F087FECDE900543B4608
:1030D00032464146024800F017FDBDE8FC81000081
:1030E0003C000020704700002DE9FE4F40F678714B
:1030F0003848FDF711F9374E00204FF6FF7700BF33
:1031000000EB400101EBC00106EB4101401C8F8246
:10311000B428F5DBDFF8C0909FED300ADFED300A10
:10312000304D00244FF40D784FF00B0A4FF01F0B79
:1031300068682218511C404691FBF0F308FB1313FA
:1031400092FBF8FC39F8133008FB1C2001EE103A12
:1031500039F81000CDF800B0B8EE411ACDE9016A97
:1031600021EE001A21EE201ABDEEC11A11EE103A1E
:1031700001EE100A9BB2B8EE411A21EE001A21EEC0
:10318000201ABDEEC11A11EE100A81B2022000EB26
:10319000440082B207EA4400FDF766FA641C052C7D
:1031A000C6DBA8680A30B42801DB0020A8600096BE
:1031B0002889E52300F132018AB2283080B2322119
:1031C000FFF736FC6868401D6860A8680A30A86090
:1031D000BDE8FE8F52090020D004002000003443D7
:1031E000000080390800002010B582B00446154860
:1031F000DFF854C00068B0FBFCF04FF47A7C00FBB1
:103200000CF001906068B0F5827F0ED10B46009201
:1032100000228021204600F019F880B1606D40F056
:103220002000606502B0032010BD019838B10198FC
:10323000401E01902068806810F0800FF5D102B028
:10324000002010BD2400002000366E012DE9F84357
:1032500004460F4690469946089DFDF7EFFF401B38
:10326000A9EB0005FDF7EAFF06462D480068C0F30C
:10327000CB30684300902068806837EA00000ED0A9
:103280000020404546D0B9F1FF3F3BD0FDF7D6FFC7
:10329000801BA84205D225B1009870B32FE0012011
:1032A000EFE72068416821F0E00141606068B0F517
:1032B000827F0BD1A068B0F5004F02D0B0F5806FCF
:1032C00004D12068016821F040010160A06AB0F5D6
:1032D000005F09D12068016821F400510160206875
:1032E000016841F400510160012084F85100002080
:1032F00084F850000320BDE8F883FFE7002500981C
:10330000401E00902068806837EA000005D0002049
:103310004045B8D10020BDE8F8830120F8E700005F
:10332000240000207047FDF78FBF000030B593B038
:1033300030216846FCF7F0FF14210CA8FCF7ECFFE5
:103340001B480025016841F080510160006800F0D1
:10335000805011901748016841F4404101600068B5
:10336000022400F4404011900120009000040190DC
:103370008001CDE90640192008904FF4B470CDE9E2
:10338000090404200B906846FEF768F9FEF70CF874
:103390000CA90F2081E831004FF4A0500F90E002FB
:1033A000109005210CA8FEF73DF813B030BD0000C9
:1033B00040380240007000400548016841F4700147
:1033C000016003494FF000608039086070470000D9
:1033D00088ED00E00148FEF792BE00002C1A0020A4
:1033E0000148FEF78CBE0000741A0020F0B4026899
:1033F0002C4B2D4C2D4D2E4EDFF8B8C098420AD0E4
:10340000B0F1804F07D0A04205D0A84203D0B0420F
:1034100001D0604503D122F070024F683A439842D0
:1034200028D0B0F1804F25D0A04223D0A84221D08F
:10343000B0421FD060451DD0A0F18044B4F5A03447
:1034400018D0A0F18044B4F5A23413D0A0F1804488
:10345000B4F5A4340ED0A0F18044B4F5C05409D022
:10346000A0F18044B4F5E05404D0A0F18044B4F558
:10347000005403D122F44072CC6822434C6922F0FC
:103480008002224302608A68C2620A6882629842AD
:1034900001D0604501D10969016301214161F0BC9E
:1034A0007047000000000140000400400008004098
:1034B000000C00400004014001F01F0101238B407B
:1034C000D0F820C02CEA03030362036A02FA01F178
:1034D000194301627047D0F808C02CF47F4C42EACF
:1034E0000322114341EA0C0181607047826822F097
:1034F0007002114341F007018160704770B4026AA5
:1035000022F001020262036A4268D0F818C02CF06F
:10351000700C2CF0030C0C6844EA0C0C23F0020332
:103520008C6823430F4C104DA04201D0A84205D116
:1035300023F00803CE68334323F00403A04201D0F4
:10354000A84207D122F4807222F400724C6922430F
:103550008C6922434260C0F818C049684163036225
:1035600070BC7047000001400004014070B4026A62
:1035700022F010020262036A4268D0F818C02CF4EC
:10358000E04C2CF4407C0C684CEA042C23F0200323
:103590008C6843EA0413114C114DA04201D0A8429B
:1035A00006D123F08003CE6843EA061323F04003DC
:1035B000A04201D0A84209D122F4806222F4006224
:1035C0004C6942EA84028C6942EA84024260C0F893
:1035D00018C049688163036270BC704700000140F5
:1035E0000004014070B4026A22F480720262036A2D
:1035F0004268D0F81CC02CF0700C2CF0030C0C6846
:1036000044EA0C0C23F400738C6843EA0423114C45
:10361000114DA04201D0A84206D123F40063CE6828
:1036200043EA062323F48063A04201D0A84209D1D3
:1036300022F4805222F400524C6942EA04128C694E
:1036400042EA04124260C0F81CC04968C1630362C8
:1036500070BC7047000001400004014010B4026AD1
:1036600022F480520262D0F820C04268C36923F479
:10367000E04323F440730C6843EA04232CF4005C19
:103680008C684CEA043CA0F18044B4F5803404D04A
:10369000A0F18044B4F5823404D122F480424C6914
:1036A00042EA84124260C36149680164C0F820C0E4
:1036B00010BC7047036AD0F820C02CF0010CC0F891
:1036C00020C0D0F818C02CF0F00C4CEA021223F005
:1036D0000A031943826101627047036A23F01003F1
:1036E0000362D0F818C0036A2CF4704C4CEA023222
:1036F00023F0A00343EA011182610162704710B513
:10370000806B0021C185C184FEF7D4FE10BD70B569
:10371000846B20684069C0F3C01094F83D10002508
:10372000212904D118B1E584204600F070F8206802
:103730004069C0F3801094F83E10222904D118B1DA
:10374000E585204600F02FF8206C40F01000206442
:103750002046FEF7AFFE70BD10B50146886B0968C4
:10376000096811F4807F02D0FFF718F910BD00211D
:10377000C1840168143151E8002F22F0800241E831
:103780000023002BF5D101680C3151E8002F42F0E5
:10379000400241E80023002BF5D110BD10B5806B2D
:1037A000FFF7FDF810BD01680C3151E8002F22F43D
:1037B000907241E80023002BF5D10168143151E8E3
:1037C000002F22F0010241E80023002BF5D1016B0C
:1037D000012909D101680C3151E8002F22F01002B3
:1037E00041E80023002BF5D1202180F83E10002174
:1037F0000163704710B50168CA6822F04002CA60D0
:10380000202180F83D10FFF7C9F8002010BD0168A5
:103810000C3151E8002F22F0C00241E80023002BB8
:10382000F5D1202180F83D10704708B590F83E1082
:10383000222901D0022008BD8268B2F5805F01D143
:10384000016929B1816AB2F5805F1DD052B10BE0E8
:10385000816A02685268C2F308020A80816A891C80
:10386000816209E002697AB10268526802F07F025F
:103870000A70816A491C8162C18D491E0904090CC4
:10388000C18505D0002008BD026852680A70F0E7C3
:103890000168CA6822F02002CA600168CA6822F47E
:1038A0008072CA6001684A6922F001024A612021DF
:1038B00080F83E10016B012903D0FEF7B9FF00200C
:1038C00008BD0021016301680C3151E8002F22F08E
:1038D000100241E80023002BF5D101680A6812F0BC
:1038E000100F02D00A6849680091818DFEF7E1FD52
:1038F000E5E700002DE9F041044620680169E2682F
:1039000021F44051114301612169A068E269084333
:103910006169114301432068C26822F4037222F4F2
:1039200014421143C16020684169A26921F44071C9
:10393000114341612068A0F18041B1F588312ED05A
:10394000A0F18041B1F58A3129D0FDF72FFE8446E0
:10395000E16900201927254D3226B1F5004F22D00C
:103960006068830F8200ACFB0701FCF73DFC014659
:10397000A5FB002040097A42424301EB820106EB9D
:103980000111A5FB0121490901F0F00202EB001031
:1039900001F00F01084421688860BDE8F081FDF75F
:1039A00015FE8446D4E761684A1840EB0003ACFB7F
:1039B0000701FCF719FC0346A5FB00104109184656
:1039C0000A016FF01803594300EB810006EBC000B9
:1039D000A5FB0010400900F0F80102EB410100F0E6
:1039E0000700084421688860BDE8F0811F85EB511D
:1039F00090F83D10212901D0022070478168B1F56F
:103A0000805F01D1016961B1016A4A1C02620268EA
:103A100009785160C18C491E0904090CC1840AD07F
:103A200013E0016A02680988C1F308015160016A64
:103A3000891C0162EEE70168CA6822F08002CA6050
:103A40000068C16841F04001C160002070472DE965
:103A5000F0410446069D884616461F4620680068C9
:103A600038EA00002AD00020B04231D1B5F1FF3F42
:103A700026D025B1FDF7E2FBC01BA84220D9206863
:103A80000C3050E8001F21F4D07140E80012002AE9
:103A9000F5D12068143050E8001F21F0010140E802
:103AA0000012002AF5D1202084F83D0084F83E0061
:103AB000002084F83C000320BDE8F0810120D3E71A
:103AC0002068006838EA000005D00020B042CDD060
:103AD0000020BDE8F0810120F8E700000148FEF772
:103AE000EBBC0000BC1A0020FEE702E008C8121F71
:103AF00008C1002AFAD170477047002001E001C1D7
:103B0000121F002AFBD170472DE9FF4F83B01E46DC
:103B1000DDE910971546980000F028F9834600204B
:103B20008DF808004FF4FA7005EB090800244744AB
:103B300001901EE0002506F0FF0A0DE06019B84272
:103B40000CDA0399CDF800A001AB31F8100002AAFD
:103B5000594600F016F86D1CB542EFDB4C4507DB0B
:103B6000A04505DD0499A4EB0902019821F8120093
:103B7000641CA742DEDC584600F04AF807B0BDE8F6
:103B8000F08F30B51578039C41F825001078401C63
:103B9000B0FBF4F504FB150010F0FF0010700BD122
:103BA0000022104603E051F82050401C2A44A04255
:103BB000F9DBB2FBF4F0186030BD00880988401AC8
:103BC000704770B5054600244FF47A7603E030461E
:103BD00000F004F8641CAC42F9D370BD70B54FF02E
:103BE000E024002265690949A36909684843A1697D
:103BF0009942FCD002D2A3EB010302E0A5EB01063F
:103C000033441A440B468242F1D370BD04000020B5
:103C100010B5002821D0114B0022001F196803E0C5
:103C2000814203D80A4649680029F9D152B1136884
:103C3000841A9C4204D1006818441060104602E0C7
:103C4000506000E0186039B102680B1A934203D14A
:103C50000B681A4402604968416010BD34000020BE
:103C60002DED028B82B0FDF7F7FAFFF75FFBFFF750
:103C7000FBF8FFF7D3F8FFF767F9FFF79BF8FFF7BB
:103C8000D1F9FFF783F9FFF7F1F904212C48FEF78A
:103C90008DFBBC222B492C48FCF7D0FE2B48FEF7AD
:103CA00073F9FEF7DDFE4FF6FF74F02300211A468C
:103CB00008460094FEF79DFE05231A4624A12648D7
:103CC000FEF7B7FD1E48FEF75FF99FED248A102529
:103CD0004FF4784633460322B0EE480A28213C20B0
:103CE000CDE90045FEF7F0FF33460322B0EE480A67
:103CF00014217820CDE90045FEF7E6FF3346032284
:103D0000B0EE480A28217820CDE90045FEF7DCFF17
:103D1000134C00254FF48D6620780228FCD111A0A9
:103D2000012300680090042269460B48FEF781FDDC
:103D300032460D490848FEF7E1FD2570ECE700002A
:103D40002C1A0020E0010020CC180020741A00205A
:103D500068656C6C6F000000BC1A002033331340A0
:103D60000800002016801680D0040020F0B50B302B
:103D7000154D20F007010024144A0FE003688B4220
:103D80000BD38B4205D95E1A43184768C3E9006715
:103D900000E04368136002C004E0021D10680028C0
:103DA000ECD12046002802D1286808B10020F0BDDF
:103DB000064A07481060074A121A22F00702C0E9B3
:103DC000002401202860D7E73800002034000020BC
:103DD000641B0020601D00202DE9FF5F1E46834606
:103DE00003EBD6704FEA600814465800DDF838A09F
:103DF000FFF7BCFF0F9904EB0A090746002509EB02
:103E0000010422E000200CE02A18B2EB080100D5E2
:103E100000218C4200DC611E3BF8111027F81010C5
:103E2000401CB042F0DB0D4B022231463846FCF715
:103E30000CFA554508DBA94506DD0198A5EB0A02F9
:103E400037F8181020F812106D1CAC42DADC04B000
:103E50003846BDE8F05FFFF7DBBE0000BB3B000863
:103E60000246012000E05043491EC9B2FBD2704710
:103E70000000000000000000000000000000000042
:103E800000000008080808080808000018180000CA
:103E900000486C2412000000000000000000000038
:103EA0000000002424247F1212127F12121200003C
:103EB0000000081C2A2A0A0C1828282A2A1C08088C
:103EC00000000022251515152A58545454220000CC
:103ED0000000000C1212120A76252911916E0000C2
:103EE00000060604030000000000000000000000BF
:103EF0000040201010080808080808101020400092
:103F00000002040808101010101010080804020025
:103F10000000000008086B1C1C6B08080000000073
:103F200000000000080808087F08080808000000D2
:103F3000000000000000000000000000060604036E
:103F40000000000000000000FE0000000000000073
:103F50000000000000000000000000000606000055
:103F600000008040402020101008080404020200D5
:103F700000000018244242424242424224180000FB
:103F8000000000080E08080808080808083E00009D
:103F90000000003C4242422020100804427E000003
:103FA0000000003C4242201820404042221C0000F9
:103FB000000000203028242422227E2020780000C7
:103FC0000000007E0202021A26404042221C00002D
:103FD000000000382402021A26424242241800003F
:103FE0000000007E222210100808080808080000BF
:103FF0000000003C4242422418244242423C00005D
:10400000000000182442424264584040241C000032
:104010000000000000001818000000001818000040
:104020000000000000000008000000000008080474
:104030000000004020100804020408102040000086
:104040000000000000007F0000007F000000000072
:1040500000000002040810204020100804020000A4
:104060000000003C4242464020101000181800009A
:104070000000001C225A555555552D42221C0000A7
:104080000000000808181414243C224242E70000F3
:104090000000001F2222221E22424242221F000054
:1040A0000000007C4242010101010142221C00008B
:1040B0000000001F2242424242424242221F0000B0
:1040C0000000003F4212121E12120242423F000044
:1040D0000000003F4212121E1212020202070000EC
:1040E0000000003C2222010101712122221C00005B
:1040F000000000E7424242427E42424242E7000064
:104100000000003E0808080808080808083E0000EB
:104110000000007C10101010101010101010110F63
:104120000000007722120A0E0A12122222770000E3
:10413000000000070202020202020202427F0000A7
:1041400000000077363636362A2A2A2A2A6B0000E3
:10415000000000E346464A4A52525262624700005B
:104160000000001C2241414141414141221C00000C
:104170000000003F424242423E02020202070000AB
:104180000000001C2241414141414D53321C60005E
:104190000000003F4242423E1212222242C700006B
:1041A0000000007C4242020418204042423E0000CF
:1041B0000000007F4908080808080808081C0000DB
:1041C000000000E74242424242424242423C00007A
:1041D000000000E7424222242414141808080000BA
:1041E0000000006B494949495555362222220000FA
:1041F000000000E7422424181818242442E7000095
:10420000000000772222141408080808081C000087
:104210000000007E2120101008040442423F0000EC
:10422000007808080808080808080808080878003E
:10423000000002020404080808101020202040405A
:10424000001E1010101010101010101010101E0072
:1042500000384400000000000000000000000000E2
:10426000000000000000000000000000000000FF4F
:104270000006080000000000000000000000000030
:10428000000000000000003C4278444242FC000074
:10429000000000030202021A26424242261A0000CF
:1042A0000000000000000038440202024438000010
:1042B00000000060404040784442424264D8000020
:1042C000000000000000003C427E0202423C000070
:1042D000000000F08808087E08080808083E000072
:1042E000000000000000007C22221C023C42423CF4
:1042F000000000030202023A4642424242E7000046
:104300000000000C0C00000E08080808083E000021
:104310000000003030000038202020202020221E05
:104320000000000302020272120A16122277000035
:104330000000000E0808080808080808083E0000E9
:10434000000000000000007F9292929292B700005D
:10435000000000000000003B4642424242E70000ED
:10436000000000000000003C42424242423C00008B
:10437000000000000000001B26424242221E0207ED
:10438000000000000000007844424242447840E0CF
:1043900000000000000000774C040404041F00002B
:1043A000000000000000007C42023C40423E000051
:1043B000000000000008083E080808080830000057
:1043C00000000000000000634242424262DC000044
:1043D00000000000000000E7422424140808000048
:1043E00000000000000000EB494955552222000062
:1043F000000000000000007624181818246E000049
:1044000000000000000000E74224241418080807F8
:10441000000000000000007E22100808447E00001A
:1044200000C0202020202010202020202020C0009C
:10443000101010101010101010101010101010107C
:1044400000060808080808100808080808080600F8
:104450000C32C2000000000000000000000000005C
:10446000000000000000000000000000000000004C
:10447000000000000000000000000000000000003C
:10448000000000000000000000000000000000002C
:10449000000000000000000000000000000000001C
:1044A00000000000000000000000C001C001C001C9
:1044B000C001C001C001C0018000800080008000F8
:1044C00080008000800000000000000000008001EB
:1044D000C003C003800100000000000000000000D5
:1044E000000000000000E01CE01CF01E700E380709
:1044F0001803080184000000000000000000000014
:1045000000000000000000000000000000000000AB
:10451000000000000000000000000000000000009B
:10452000000000000000000000000000201020102B
:10453000201020102010FE7FFE7F100810081008A9
:104540001008100810081008FE7FFE7F08040804F9
:104550000804080408040000000000000000000037
:10456000000000000000000000010001C007601909
:10457000103118311839183938017001E001C003C1
:104580008007000F001D003900311C311C310C3137
:104590000C11180DE00700010001000100000000EF
:1045A0000000000000000000000000001C10361891
:1045B0006308630C63046304630263026301361DD2
:1045C0009C378022806340634063206320633063B4
:1045D00010221836081C0000000000000000000037
:1045E000000000000000000000000000F000980142
:1045F0008C018C018C018C018C00CC007800183E61
:104600001C083608320863046304C304C3038343ED
:1046100006438E26781C0000000000000000000009
:104620000000000000001C003C003C003000300096
:1046300010000C0006000000000000000000000058
:10464000000000000000000000000000000000006A
:10465000000000000000000000000000000000005A
:104660000000000000000040002000100008000CC6
:1046700000040006000300030003800180018001A4
:10468000800180018001800180010003000300039C
:1046900000060006000C000800100020004000008A
:1046A00000000000000002000400080010003000BC
:1046B00020006000C000C000C000800180018001B7
:1046C00080018001800180018001C000C000C00025
:1046D00060006000300010000800040002000000CC
:1046E00000000000000000000000000000000000CA
:1046F00000018003800300011C713C79783DC007F4
:104700000001C007783D3C791C71000180038003E3
:104710008001000000000000000000000000000018
:104720000000000000000000000000000000000089
:104730000000000100010001000100010001000172
:10474000FC7F0001000100010001000100010001E7
:104750000000000000000000000000000000000059
:104760000000000000000000000000000000000049
:104770000000000000000000000000000000000039
:104780000000000000000000000000000000000029
:104790001C003C003C003000300010000C00060003
:1047A0000000000000000000000000000000000009
:1047B00000000000000000000000000000000000F9
:1047C000FE7F00000000000000000000000000006C
:1047D00000000000000000000000000000000000D9
:1047E00000000000000000000000000000000000C9
:1047F00000000000000000000000000000000000B9
:104800000000000000000000000000000000180090
:104810003C003C0018000000000000000000000008
:104820000000000000000040006000200030001088
:1048300000180008000C000400060002000300013C
:1048400080018000C00040006000200030001000A7
:10485000180008000C000400060002000000000020
:10486000000000000000000000000000C007600C15
:1048700030181830183018200C600C600C600C6078
:104880000C600C600C600C600C6018201830183044
:104890003018600CC007000000000000000000009D
:1048A0000000000000000000000000000001800186
:1048B000F801800180018001800180018001800178
:1048C00080018001800180018001800180018001E0
:1048D0008001C003F81F000000000000000000007D
:1048E000000000000000000000000000E007101CB5
:1048F0000818043004300C300C3000300018000868
:104900000004000200018000400020201020082048
:104910000430FC1FFC1F000000000000000000002D
:10492000000000000000000000000000E003180E7E
:104930000C0C0C180C180C180018000C0006C00306
:10494000000E00180010003000300C300C300C103D
:104950000C18180CE003000000000000000000002C
:10496000000000000000000000000000000C000E2D
:10497000000E000F800E800E400E600E200E100EF6
:10498000100E080E040E040EFE7F000E000E000E28
:10499000000E000E000EC07F0000000000000000AE
:1049A000000000000000000000000000F03FF03FA9
:1049B00010001000100008000800C807280C181884
:1049C000081000300030003000300C300C3004187B
:1049D0000418080CF00300000000000000000000B4
:1049E000000000000000000000000000800FC01068
:1049F000203010301800180008000C008C0F6C18C4
:104A00003C301C600C600C600C600C60186018205E
:104A100030306018C00700000000000000000000F7
:104A2000000000000000000000000000F83FF83F18
:104A30001C100C0804080404000400020002000119
:104A400000010001800080008000C000C000C000A4
:104A5000C000C000C0000000000000000000000016
:104A6000000000000000000000000000E007300C23
:104A700018180C300C300C301C3038187008E00757
:104A8000B007180E0C1C063806300630063006300B
:104A90000C18180CE00300000000000000000000EB
:104AA000000000000000000000000000E003180407
:104AB0000C080C1806100630063006300630063892
:104AC0000C3C1836F03100300018001800180C0C9F
:104AD0000C060C03F00100000000000000000000C4
:104AE00000000000000000000000000000000000C6
:104AF000000000000000000000008001C003C003AF
:104B000080010000000000000000000000008001A3
:104B1000C003C0038001000000000000000000008E
:104B20000000000000000000000000000000000085
:104B300000000000000000000000C000C0000000F5
:104B40000000000000000000000000000000000065
:104B50000000C000C0008000800040004000000055
:104B6000000000000000000000000020001000080D
:104B70000004000600038001C0006000300018003F
:104B80000C00180030006000C00080010003000627
:104B900000040008001000200000000000000000D9
:104BA0000000000000000000000000000000000005
:104BB00000000000000000000000FE7F0000000078
:104BC000000000000000FE7F000000000000000068
:104BD00000000000000000000000000000000000D5
:104BE00000000000000000000000040008001000A9
:104BF00020006000C000800100030006000C0018C7
:104C000000300018000C000600038001C0006000A6
:104C10002000100008000400000000000000000058
:104C200000000000000000000000C007301808303D
:104C300008600C601C601C601C600030001C0006DA
:104C400000018000800080008000000000008001E2
:104C5000C003C0038001000000000000000000004D
:104C6000000000000000000000000000C007601805
:104C7000103018200C2F8C4D864CC64CC64C664C00
:104C800066446644662666266615CC1C0C400820E1
:104C900018303018C00700000000000000000000BD
:104CA000000000000000000000000001C001C00181
:104CB000C0014001600320032003200330061006DA
:104CC00010061006F80F080C080C080C0C0C041841
:104CD000041806181F7C00000000000000000000FF
:104CE000000000000000000000000000FE07181C8B
:104CF000183818301830183018301818180CF807F1
:104D0000181818301820186018601860186018609B
:104D100018301818FE0F000000000000000000000E
:104D2000000000000000000000000000C027603804
:104D3000103018200C400C4004000600060006004D
:104D4000060006000600060006000C400C400C2081
:104D500018303018C00700000000000000000000FC
:104D6000000000000000000000000000FE03180E1C
:104D7000181818301830183018601860186018604B
:104D80001860186018601860186018301830181013
:104D90001818180EFE0300000000000000000000BC
:104DA000000000000000000000000000FE3F18307E
:104DB000182018601840180018081808180CF80F68
:104DC000180C180818081800180018001840184087
:104DD00018201830FE3F0000000000000000000016
:104DE000000000000000000000000000FE7F1870BE
:104DF000184018C018801800181018101818F81F3C
:104E000018181810181018001800180018001800AA
:104E1000180018007E0000000000000000000000E4
:104E2000000000000000000000000000C013701C23
:104E3000101018100C200C200400060006000600BC
:104E40000600060006FC063006300C300C30183028
:104E500018303008C007000000000000000000000B
:104E60000000000000000000000000003F7E0C1861
:104E70000C180C180C180C180C180C180C180C1812
:104E8000FC1F0C180C180C180C180C180C180C180B
:104E90000C180C183F7E000000000000000000000D
:104EA000000000000000000000000000F81F80016A
:104EB00080018001800180018001800180018001EA
:104EC00080018001800180018001800180018001DA
:104ED00080018001F81F00000000000000000000B9
:104EE000000000000000000000000000E07F00065D
:104EF0000006000600060006000600060006000682
:104F00000006000600060006000600060006000671
:104F100000060006000600060E060E038E01FC00C9
:104F20000000000000000000000000007E7C181857
:104F30001808180418061802180198019801D801D9
:104F4000B803380318071806180E180C181C181880
:104F5000183018307EFC0000000000000000000047
:104F60000000000000000000000000007E001800AB
:104F70001800180018001800180018001800180071
:104F800018001800180018001800180018401840E1
:104F900018201830FE3F0000000000000000000054
:104FA0000000000000000000000000001FF81C3896
:104FB0001C381C381C3C34343434343434367432A9
:104FC0006432643264326431C431C431C431C430B7
:104FD000C43084309FFC000000000000000000008E
:104FE0000000000000000000000000001F7C1C10FA
:104FF0003C103410341074106410E410C410C41148
:1050000084118413041304170416041E041C041CC6
:10501000041C04181F18000000000000000000001D
:10502000000000000000000000000000C003300C81
:10503000181808100C300C30066006600660066018
:10504000066006600660066006600C200C300810E2
:105050001818300CC0030000000000000000000021
:10506000000000000000000000000000FE0F181803
:105070001830186018601860186018601830181818
:10508000F80F180018001800180018001800180071
:10509000180018007E000000000000000000000062
:1050A000000000000000000000000000C003300C01
:1050B00018180C100C300C200660066006600660A4
:1050C00006600660066006600660E4612C331C32F0
:1050D0001816300EC007004C007C0038000000009D
:1050E000000000000000000000000000FE07181C87
:1050F000183818301830183018301818180CF807ED
:1051000098031803180718061806180E180C180C20
:10511000181C18187E780000000000000000000035
:10512000000000000000000000000000E027303810
:1051300018300C200C200C000C0018007800E00344
:10514000800F001E0038007000600460046008607A
:1051500018303818C80F00000000000000000000E0
:10516000000000000000000000000000FC3F8C2157
:10517000846182418241800180018001800180013F
:105180008001800180018001800180018001800117
:1051900080018001E0070000000000000000000026
:1051A0000000000000000000000000003F7C0C1028
:1051B0000C100C100C100C100C100C100C100C100F
:1051C0000C100C100C100C100C100C100C100C10FF
:1051D00008083804E00300000000000000000000A0
:1051E0000000000000000000000000003EF8182051
:1051F000182018203010301030103010600860086F
:105200006008E00CC004C004C00480038003800375
:105210008003000100010000000000000000000009
:10522000000000000000000000000000DFF38661C5
:10523000862186218C210C218C238C138C138C13BA
:105240004C1358125816580E380E380E380E300CB3
:105250001004100410040000000000000000000012
:105260000000000000000000000000007E3E180862
:1052700038083004300470026002E001C001C0014F
:10528000800180034003400720062006100C100C0C
:10529000081808183E7C0000000000000000000014
:1052A0000000000000000000000000007E7C1C10D8
:1052B000181018083008300C700460046002C00236
:1052C000C002C00180018001800180018001800155
:1052D00080018001E00700000000000000000000E5
:1052E000000000000000000000000000F83F181857
:1052F0000818040C040E0006000700038003800158
:10530000C001C000E00060007000300038201820AC
:105310001C100C18FE1F0000000000000000000020
:10532000000000000000C03F40004000400040007E
:10533000400040004000400040004000400040006D
:10534000400040004000400040004000400040005D
:1053500040004000400040004000C03F000000000E
:105360000000000000000000000008001800180005
:10537000100030002000600060004000C00080008D
:105380008001800100010003000200060006000405
:10539000000C000800180018001000300020000069
:1053A000000000000000FC030002000200020002F6
:1053B00000020002000200020002000200020002DD
:1053C00000020002000200020002000200020002CD
:1053D00000020002000200020002FC0300000000C4
:1053E0000000000000008007C00620081010000028
:1053F00000000000000000000000000000000000AD
:10540000000000000000000000000000000000009C
:10541000000000000000000000000000000000008C
:10542000000000000000000000000000000000007C
:10543000000000000000000000000000000000006C
:10544000000000000000000000000000000000005C
:105450000000000000000000000000000000FFFF4E
:105460000000000000007800C00000010000000003
:10547000000000000000000000000000000000002C
:10548000000000000000000000000000000000001C
:10549000000000000000000000000000000000000C
:1054A00000000000000000000000000000000000FC
:1054B00000000000000000000000F00318060C0CC3
:1054C0000C0C000C800F700C1C0C0C0C060C060C49
:1054D000064C0C4FF83800000000000000000000EF
:1054E0000000000000000000000010001E00180076
:1054F00018001800180018001800180FD8183830B5
:1055000038601860186018601860186018601820FB
:1055100038307818C80700000000000000000000C4
:10552000000000000000000000000000000000007B
:1055300000000000000000000000C007700C1818F8
:1055400018180C180C000C000C000C000C20182073
:1055500018103008C0070000000000000000000024
:10556000000000000000000000000010001E0018F5
:1055700000180018001800180018E01B301C18183C
:1055800018180C180C180C180C180C180C180818F3
:10559000181C307AE0090000000000000000000044
:1055A00000000000000000000000000000000000FB
:1055B00000000000000000000000C007300C1818B8
:1055C00008100C300C30FC3F0C000C000C001820B4
:1055D00018107018C0070000000000000000000054
:1055E000000000000000000000000000003E80C33A
:1055F00080C0C0C0C000C000C000FC1FC000C00010
:10560000C000C000C000C000C000C000C000C0009A
:10561000C000C000F80F0000000000000000000003
:10562000000000000000000000000000000000007A
:1056300000000000000000000000C077306C10186F
:105640001818181818181018300CF007180018003F
:10565000F00FF03F08700C600C600C603838E00F01
:105660000000000000000000000010001E001800F4
:1056700018001800180018001800980FD8183830B3
:1056800018301830183018301830183018301830DA
:10569000183018307EFC0000000000000000000000
:1056A00000000000000000000000000080038003F4
:1056B00080030000000000000001F801800180016B
:1056C00080018001800180018001800180018001D2
:1056D00080018001F81F00000000000000000000B1
:1056E000000000000000000000000000003800384A
:1056F00000380000000000000010801F0018001893
:1057000000180018001800180018001800180018D9
:1057100000180018001800180018180C1806F003DC
:105720000000000000000000000010001E00180033
:1057300018001800180018001800183E180C180659
:10574000180318019801D801380318071806180C17
:10575000181C18187E7C00000000000000000000EB
:10576000000000000000000000000001F8018001BE
:105770008001800180018001800180018001800121
:105780008001800180018001800180018001800111
:1057900080018001F81F00000000000000000000F0
:1057A00000000000000000000000000000000000F9
:1057B00000000000000000000800EE1C9C338C314B
:1057C0008C318C318C318C318C318C318C318C31F1
:1057D0008C318C31DE7B00000000000000000000F6
:1057E00000000000000000000000000000000000B9
:1057F000000000000000000010001E0FD818383014
:105800001830183018301830183018301830183058
:10581000183018307EFC000000000000000000007E
:105820000000000000000000000000000000000078
:1058300000000000000000000000C007701C1030D5
:1058400018300C600C600C600C600C600C60183040
:1058500018303018C00700000000000000000000F1
:105860000000000000000000000000000000000038
:10587000000000000000000010009E0F5818383093
:1058800018201860186018601860186018601830C8
:1058900038307818980718001800180018007E0093
:1058A00000000000000000000000000000000000F8
:1058B00000000000000000000000C023303C183849
:1058C00018300C300C300C300C300C300C300830F0
:1058D0001838303CE033003000300030003000FC3D
:1058E00000000000000000000000000000000000B8
:1058F000000000000000000060007E3C6066606107
:10590000E000E00060006000600060006000600097
:1059100060006000FE0700000000000000000000C2
:105920000000000000000000000000000000000077
:1059300000000000000000000000E02730381830B0
:10594000182018007000E003800F001C04300430A1
:105950000C301C18EC0F00000000000000000000DC
:105960000000000000000000000000000000000037
:10597000800080008000C000E000FC1FC000C0006C
:10598000C000C000C000C000C000C000C000C020F7
:10599000C0208011000F0000000000000000000087
:1059A00000000000000000000000000000000000F7
:1059B000000000000000000010201E3C18301830CD
:1059C0001830183018301830183018301830183097
:1059D000183830F4E0130000000000000000000060
:1059E00000000000000000000000000000000000B7
:1059F000000000000000000000007E3C181818089D
:105A0000380830043004700260026002E001C00116
:105A1000C001C00080000000000000000000000085
:105A20000000000000000000000000000000000076
:105A300000000000000000000000DFF78E630C2370
:105A40008C238C239813981358165816700E700ECA
:105A5000700E200420040000000000000000000080
:105A60000000000000000000000000000000000036
:105A700000000000000000000000FC3E7008700400
:105A8000E004C002C0018003800340076006200CD0
:105A9000100C18183E7E00000000000000000000FE
:105AA00000000000000000000000000000000000F6
:105AB000000000000000000000007E7C181818089C
:105AC00030083008300460046004C002C002C00224
:105AD0008001800180018000800080004C003C003B
